:020000040800F2
:1000000000200020811F00082D1E00082F1E000860
:1000100000000000000000000000000000000000E0
:10002000000000000000000000000000331E000877
:100030000000000000000000351E0008371E000808
:10004000D11F0008D11F0008D11F0008D11F0008D0
:10005000D11F0008D11F0008D11F0008D11F0008C0
:10006000D11F0008D11F0008D11F0008D11F0008B0
:10007000D11F0008D11F0008D11F0008D11F0008A0
:10008000511F0008D11F000800000000D11F000808
:10009000D11F0008D11F0008D11F0008D11F000880
:1000A000D11F0008D11F0008D11F0008391E000809
:1000B000A51E000800000000D11F0008000000007D
:0400C0005FF808F1EC
:1000C40008B59023DB05984217D0224B98421FD0E5
:1000D400214B984227D0214B98422FD0204B984255
:1000E40000D008BD8020C003012100F059FB80200E
:1000F400C003002100F054FBF3E7802080020121BB
:1001040000F04EFB80208002002100F049FBE8E76C
:100114008020C002012100F043FB8020C0020021A6
:1001240000F03EFBDDE780200003012100F038FBF6
:1001340080200003002100F033FBD2E7802040033D
:10014400012100F02DFB80204003002100F028FB5A
:10015400C7E7C0460004004800080048000C0048F7
:1001640000140048F0B55F46564644464D46F0B488
:1001740083B001910F6803210022002301268846E1
:1001840003E001330232102B29D0341C9C403D1C67
:100194002540A542F5D1019C012124794942A34679
:1001A4005944012922D945469540ED43AC4605689A
:1001B40064462540056005685C4694402C43046011
:1001C400C46845469540AC430199C460CC79C56880
:1001D40094402C430133C4600232102BD5D103B0B8
:1001E4003CBC90469946A246AB46F0BD4146846865
:1001F4009140C9430C408460019C8C4664798168B9
:1002040094400C4384608188A94381800199848847
:100214008D799D4025438580C9E7C046044B022261
:1002240003600023037142718371C3717047C04638
:10023400FFFF0000802382B05B020193019B0B430C
:100244000193019BC361C161019BC361C3690193B4
:10025400C369019302B07047008A0840431E984165
:100264007047C046008A7047808A0840431E984100
:100274007047C046808A7047816170470185704726
:1002840000B5002A01D1018500BD8161FCE7C046AB
:100294008182704707230B40C9080831890030B5B3
:1002A4009B000C580F259D40AC430C500C589A40B1
:1002B400131C23430B5030BD837870B5002B09D138
:1002C40003781F21194001238B40104A191C8023F5
:1002D400D15070BD05780D4BAA080321C03292009D
:1002E4000D40FF24D658E900251C8D40AE43351C33
:1002F4004678B60134408C40291C2143D150027801
:100304001F210A40012191401960E2E700E100E069
:10031400054B00B51A69002902D182431A6100BD58
:1003240010431861FBE7C04600ED00E0054B00B543
:100334001A68042803D004218A431A6000BD1043BC
:100344001860FBE710E000E0114B0122196811432B
:10035400196058680F490140596018680E490140F6
:10036400196018680D490140196058680C4901402A
:100374005960D96A0F208143D962186B0949014039
:100384001963596B9143002259639A607047C046C0
:10039400001002400CB8FFF8FFFFF6FEFFFFFBFF62
:1003A400FFFFC0FFACFEFFFF024B00221A70187063
:1003B4007047C04602100240034BF8211A68C0007F
:1003C4008A431043186070470010024000B5064B82
:1003D400002804D11A6801218A431A6000BD1968F3
:1003E40001220A431A60F9E700100240034BF82186
:1003F4005A6BC0008A431043586370470010024090
:1004040000B5064B002804D15A6B01218A435A6374
:1004140000BD596B01220A435A63F9E700100240F8
:1004240000B5064B002804D1596B04220A435A63D1
:1004340000BD5A6B04218A435A63F9E70010024055
:10044400064B01211A6A8A431A621A6A04218A43F2
:100454001A621A6A104318627047C04600100240BC
:10046400044B18211A6A8A431A621A6A10431862E2
:100474007047C0460010024000B5064B002804D166
:100484005A6A01218A435A6200BD596A01220A4309
:100494005A62F9E700100240054B10B5054A5C6842
:1004A40022405A605A6810430843586010BDC04641
:1004B40000100240FFFFC2FF064B00B51968002878
:1004C40003D1054A0A401A6000BD802252040A433F
:1004D4001A60F9E700100240FFFFFFFE034B0F21F3
:1004E400DA6A8A431043D8627047C046001002405B
:1004F400064B00B51968002803D1054A0A401A6062
:1005040000BD802212030A431A60F9E7001002407A
:10051400FFFFF7FF014B18707047C04607100240F9
:10052400034B03215A688A43104358607047C046FE
:1005340000100240024B0C205B6818407047C04614
:1005440000100240034BF0215A688A43104358605C
:100554007047C04600100240034B044A59680A40E1
:10056400104358607047C04600100240FFF8FFFF78
:10057400094B0A4A59680A405A6059680204120C25
:100584000A435A60196B064A000C0A401A631A6B34
:10059400104318637047C04600100240FFBFFFFFBE
:1005A400FFFEFFFF044B40211A6B8A431A631A6B48
:1005B400104318637047C04600100240044B1021DA
:1005C4001A6B8A431A631A6B104318637047C04648
:1005D40000100240044B03211A6B8A431A631A6BFE
:1005E400104318637047C046001002403B4A38B5B8
:1005F40053680C21041C0B40042B01D0082B52D04F
:1006040037482060354B37495A68051C1206120FCB
:100614008A5CD54065602A1C5D686D056D0F495D77
:10062400CA40A260111C1A6BD50521D42E4BE3607D
:100634002A4B1B6B5D0624D42C4B2361274B1B6B6D
:10064400DA0625D4264B254A6361156B03232B4216
:1006540024D0116B194001293AD0116B1940022999
:1006640038D0126B1340032B01D11D4BA36138BD4D
:100674005B685A0414D44B08E360184B1B6B5D068B
:10068400DAD580231B022361144B1B6BDA06D9D500
:10069400124A6061156B03232B42DAD1A161E6E7AC
:1006A4008B08E360C4E755685368AD022D0F02352B
:1006B400D90303D40E4868432060A3E7D36A0F210B
:1006C40019400131064801F07BF96843206099E73D
:1006D400A061CCE780231B02A361C8E7001002409D
:1006E40000127A0000000020809FD50012800000D4
:1006F40000093D00024B1A6A104318627047C04655
:1007040000100240064B00B5196A002803D1054ABF
:100714000A401A6200BD802212020A431A62F9E7F3
:1007240000100240FF7FFFFF064B00B5196A002846
:1007340003D1054A0A401A6200BD802252020A43CC
:100744001A62F9E700100240FFFFFEFF054B00B5F7
:100754005A69002902D182435A6100BD104358618D
:10076400FBE7C04600100240054B00B59A6900291A
:1007740002D182439A6100BD10439861FBE7C046F1
:1007840000100240054B00B5DA69002902D182430A
:10079400DA6100BD1043D861FBE7C0460010024097
:1007A400054B00B59A6A002902D182439A6200BDC2
:1007B40010439862FBE7C04600100240054B00B5A9
:1007C400DA68002902D18243DA6000BD1043D860A0
:1007D400FBE7C04600100240054B00B51A6900292A
:1007E40002D182431A6100BD10431861FBE7C04681
:1007F4000010024000B5054B1A78002902D182434B
:100804001A7000BD10431870FBE7C046091002407F
:1008140000B5430908D10B4B1A681F231840C24086
:10082400101C0123184000BD012B04D0022B05D05D
:10083400044B5A6BF1E7034B1A6AEEE7014B5A6A11
:10084400EBE7C0460010024010B5002382B0A0249C
:100854000193E40001E0002808D11120FFF7D8FF3C
:10086400019B01330193019BA342F4D11120FFF7B3
:10087400CFFF431E984102B010BDC046034B8022F7
:10088400596A52040A435A627047C0460010024033
:10089400024B9B681840431E984170470010024069
:1008A400014B18707047C0460A10024008B5364B19
:1008B400984221D08023DB05984228D0334B9842BC
:1008C4002ED0334B984234D0324B98423AD0324BEC
:1008D400984242D0314B98424AD0314B984200D092
:1008E40008BD8020C0020121FFF768FF8020C002FC
:1008F4000021FFF763FFF3E7802000010121FFF7E8
:100904005DFF802000010021FFF758FFE8E7012088
:100914000121FFF761FF01200021FFF75DFFDFE701
:1009240002200121FFF758FF02200021FFF754FFA6
:10093400D6E710200121FFF74FFF10200021FFF719
:100944004BFFCDE7802040000121FFF745FF8020C9
:1009540040000021FFF740FFC2E780204002012150
:10096400FFF72CFF802040020021FFF727FFB7E7A5
:10097400802080020121FFF721FF802080020021D6
:10098400FFF71CFFACE7C046002C01400004004008
:10099400001000400020004000400140004401409D
:1009A4000048014030B51A4CC02502192D065442A6
:1009B400624144190388002C01D0002A1AD0702403
:1009C400A3434C882343134CA04203D0124D0C89FB
:1009D4002B40234303804B68104CC3620B88038570
:1009E4000319002B01D0002A08D08B7A0386012337
:1009F400838230BD0A4CA042E5D1E0E7094D43199A
:100A0400002BF2D0084A8318002BEED0EFE7C04643
:100A140000D4FEBF00100040FFFCFFFF00C0FEBF7B
:100A24000004004000B8FEBF00BCFEBF01235B42CF
:100A34004360002303800381438083727047C04670
:100A4400018582827047C04603887022934319430C
:100A54000180704741627047C1627047406A7047C5
:100A6400008D704700B5002904D103880222934306
:100A7400038000BD0288022313430380F9E7C046C4
:100A840000B5002904D1038804229343038000BDE8
:100A94000288042313430380F9E7C04600B5002904
:100AA40004D1038880229343038000BD02888023FD
:100AB40013430380F9E7C046038808229343038065
:100AC40003881943018070470288034B1340038055
:100AD4000388194301807047FFFCFFFF00B500291C
:100AE40004D1038801229343038000BD02880123BB
:100AF40013430380F9E7C0460B884A881A438B885E
:100B04001A43CB881A430B891A434B891A438B899E
:100B14001A434423C25270470023038043808380D6
:100B2400C3800381438183817047C04600B5442359
:100B3400002904D1C25A5204520CC25200BDC15AF7
:100B4400802212020A43C252F8E7C046038C0122F3
:100B54009343038470B5058C8288048B73239C4370
:100B64000B884E881C4302239D438B893343134EC9
:100B74002B438519002D03D0114E8519002D13D157
:100B84000825AB43CD894E8A2B430425AB438D887E
:100B94002B430C4D2A400D8A35432A4382808A68B0
:100BA40004834263038470BD074E8519002DE7D08A
:100BB400064E8519002DE3D0F0E7C04600C0FEBF05
:100BC40000D4FEBFFFFCFFFF00B8FEBF00BCFEBFA9
:100BD400038C102293430384038C30B58288174C12
:100BE400058B2C400D882D022C432025AB438D8989
:100BF4002D012B434D889BB22D012B43104D9BB2ED
:100C0400A84205D082808A6804838263038430BD4D
:100C14008025AB43CD892D012B430A4D2B408D8874
:100C24002D012B43084D9BB22A400D8AAD002A4367
:100C34004D8A92B2AD002A4392B2E3E7FF8CFFFFE4
:100C4400002C0140BFFF0000FFF3FFFF028C1A4B92
:100C540030B513400384058C8288848B73239C43B2
:100C64000B881C43154B2B408D892D022B434D883B
:100C74009BB22D022B43124D9BB2A84205D0828019
:100C84008A688483C263038430BD0E4D2B40CD89B2
:100C94002D022B430C4D2B408D882D022B430B4DE5
:100CA4009BB22A400D8A2D012A434D8A92B22D010E
:100CB4002A4392B2E3E7C046FFFEFFFFFFFDFFFFBA
:100CC400002C0140FFF7FFFFFFFB0000FFCFFFFFF9
:100CD400028C124B30B513400384058C104A838870
:100CE400848B14400A88120214430E4A2A408D89C8
:100CF4002D032A434D8892B22D032A430A4DA8425C
:100D040005D083808B6884830364028430BD074DDF
:100D14002B400D8AAD012B439BB2F2E7FFEFFFFF9F
:100D2400FF8CFFFFFFDFFFFF002C0140FFBFFFFF31
:100D3400002303804380838083608381C381038293
:100D44004382704730B50125048C8D40AC43031CAD
:100D5400048408200C1C84431833201E0DD004394D
:100D640089B24908C9180868094B120203400B608C
:100D74000B6892B21A430A6030BD4908CB1819684F
:100D840070208143196019680A431A60F4E7C04669
:100D9400FF8FFFFF4163704781637047C1637047F2
:100DA40001647047038B7022934319430183704796
:100DB400028B034B1A400B02111C19430183704729
:100DC400FF8FFFFF838B7022934319438183704706
:100DD400828B034B1A400B02111C19438183704709
:100DE400FF8FFFFF00B5002904D1838801229343BC
:100DF400838000BD8288012313438380F9E7C046C2
:100E0400038B08229343194301837047028B034BDE
:100E14001A400B02111C194301837047FFF7FFFFAF
:100E2400838B08229343194381837047828B034B3E
:100E34001A400B02111C194381837047FFF7FFFF0F
:100E4400038B04229343194301837047028B034BA2
:100E54001A400B02111C194301837047FFFBFFFF6B
:100E6400838B04229343194381837047828B034B02
:100E74001A400B02111C194381837047FFFBFFFFCB
:100E8400038B80229343194301837047038B090228
:100E94005B045B0C194301837047C046838B80223B
:100EA4009343194381837047838B09025B045B0C72
:100EB400194381837047C046038C0222934319432C
:100EC40001847047038C08229343194301847047BB
:100ED400028C20239A430B01111C1943018470478F
:100EE400028C80239A430B01111C1943018470471F
:100EF400028C034B1A400B02111C194301847047E6
:100F0400FFFDFFFF028C034B1A400B02111C194317
:100F140001847047FFF7FFFF028C034B1A400B0359
:100F2400111C194301847047FFDFFFFF0389082266
:100F3400934303810389194301817047038C10B5DE
:100F440001248C40A3430384038C8A40111C19435D
:100F5400018410BD038C10B504248C40A343038486
:100F6400038C8A40111C1943018410BD00B500296B
:100F740004D1838804229343838000BD82880423A0
:100F840013438380F9E7C046F0B50B88002B28D0C3
:100F9400042B45D0082B00D165E0058C434A4B88CF
:100FA4002A408E880C890284878B414A36023A4053
:100FB4003243240392B2058C22433E4C1B032C4043
:100FC4001C438023A4B25B01234382830384CB8824
:100FD400394A818B1B020A408283828B13438383A9
:100FE400F0BD028C0124A2438B884D880E890284B3
:100FF400028BF327BA4336013243048C92B21A436C
:101004000A239C4301232B43234302830384028B3F
:10101400CB880C218A430283028B13430383DFE7CB
:10102400038C102293434C888E880F890384058B8C
:101034001F4A3F0315403D43038CADB232022A439D
:10104400A0252401AB4323439BB2102423430283F2
:101054000384CB88184A018B1B020A400283028B4B
:1010640013430383BCE7058C144A8C882A404B88BD
:101074000E890284828BF327BA433601324392B23B
:10108400058C22430E4C1B022C401C438023A4B22B
:101094005B00234382830384828BCB880C218A43A5
:1010A4008283828B134383839AE7C046FFEFFFFF5B
:1010B400FF0C0000FF5F0000FFF3FFFFFFFEFFFFD8
:1010C400FFF5FFFF00230122038043808280C38059
:1010D40003817047F0B54E4657464546E0B44B8809
:1010E4005C425C41620092468A88551E6E1EB54180
:1010F4000226751B0E88002E44D0078C1026B74399
:101104000C890784068B078CB046414EBC46474683
:10111400374026033E43B6B21202324367461E01ED
:10112400A0239F433B1C33439BB2102633430283CB
:101134000384CB88374A018B57460A400283018BCC
:101144001A020A430283028C01218A430284068B19
:101154002101F324A643028C341C0C430A218A4344
:1011640001210A431743254305830784028B0C217D
:101174008A430283028B134303831CBC9046994623
:10118400A246F0BD0E890127B146068C2D02BE434E
:101194000684068B078CB446BA46F3266746B743E3
:1011A4004E4636013743BFB23A430A265746B74341
:1011B4000126B446664633433B4302830384028BD1
:1011C400CB880C218A430283028B10211A430283A9
:1011D400028C4E468A430284078B0D4A018C1740C9
:1011E40032033E1C1643A022914310221143B6B28F
:1011F40062010C1C1443354305830484018B054AA6
:101204001B020A400283028B13430383B5E7C046E3
:10121400FF0C0000FFF3FFFF406B7047806B7047CB
:10122400C06B7047006C7047038B0C22934303839D
:10123400038B194301837047028B044B090213404B
:101244000383038B194301837047C046FFF3FFFFF9
:10125400838B0C2293438383838B1943818370474D
:10126400828B044B090213408383838B194381834C
:101274007047C046FFF3FFFF00B58389002A02D1FF
:101284008B43838100BD19438181FBE781827047D1
:10129400008A0840431E98417047C046C9430182F2
:1012A4007047C046028A83890B40581E8341101C34
:1012B4000840411E884118407047C046C943018216
:1012C4007047C04611434823C152704700B5838913
:1012D400002A02D18B43838100BD19438181FBE73E
:1012E40000B5002904D1838808229343838000BD7C
:1012F4008288082313438380F9E7C04603890722C1
:10130400934303817047C046038970229343194372
:1013140001810289072313430381704770B5048C4C
:1013240060291CD00125AC430484068BF324A64316
:1013340001242643058CB6B21B0133430A26B54368
:101344002C43A4B22243038302840389702293436F
:1013540019430181028907231343038170BD1025BA
:10136400AC430484068B094C058C2640802464001D
:1013740026431C03331C2343A024A54310242543E4
:1013840014012A1C224303830284DEE7FF0C0000BD
:1013940030B50489FF252C4021430A431B021A431C
:1013A40002810389772293431343038130BDC046EE
:1013B40030B50489FF252C4021430A431B021A43FC
:1013C400028102898023DB011343038130BDC046BF
:1013D40003897022934319430181704783887022E3
:1013E400934383808388194381807047038907224C
:1013F4009343038103891943018170470389802240
:1014040093430381038919430181704730B50489EB
:10141400FF252C4021430A431B021A43028130BD9D
:10142400F0B504890727BC43068B2143064C058C81
:101434003440064E1B013443AA26B5432A431A43BB
:10144400018104830284F0BDFCFCFFFF0101000064
:1014540000B5002904D1838880229343838000BD92
:101464008288802313438380F9E7C0465023C15206
:101474007047C04608B50E4B98420ED00D4B9842AB
:1014840000D008BD802080020121FFF7A5F980204B
:1014940080020021FFF7A0F9F3E78020C0010121B9
:1014A400FFF78CF98020C0010021FFF787F9E8E7F6
:1014B4000038014000440040036801229343F0B522
:1014C400036042681F4B0D1C896813400B43436043
:1014D40002681D4B69681A40EB6889B00B4329699F
:1014E400041C0B43134303608268184B13406A695E
:1014F4001343836001A8FFF779F8154B9C421ED073
:10150400039F2368190400D57F002E68381C311C02
:1015140000F056FA311C051C381C00F095FA7608C8
:101524000023B1425B41ED1823681A0404D5094A2B
:101534002B075B0F15401D43A58109B0F0BD079F24
:10154400DFE7C046FFCFFFFFF3E9FFFFFFFCFFFF2C
:1015540000380140F0FF000096239B0103600C2239
:10156400002343608360C360026143617047C046E7
:101574004268064B10B51A400C684B6823438C68CC
:10158400C96823430B431343436010BDFFF0FFFFBF
:101594000023036043608360C360704700B5002983
:1015A40004D1036801229343036000BD0268012350
:1015B40013430360F9E7C04600B50368002A02D16B
:1015C4008B43036000BD19430160FBE700B502686B
:1015D400002903D1044B1340036000BD80231B0288
:1015E40013430360F9E7C046FF7FFFFF00B582683D
:1015F400002903D1044B1340836000BD80231B01E9
:1016040013438360F9E7C046FFF7FFFF00B5426864
:10161400002903D1044B1340436000BD80231B0306
:1016240013434360F9E7C046FFFFF7FF00B5426884
:10163400002903D1044B1340436000BD8023DB0227
:1016440013434360F9E7C046FFFFFBFF00B543685F
:10165400002A02D18B43436000BD19434160FBE77C
:1016640000B54268002903D1044B1340436000BD18
:1016740080231B0213434360F9E7C046FF7FFFFF4B
:1016840000B54268002903D1044B1340436000BDF8
:1016940080231B0413434360F9E7C046FFFF7FFF29
:1016A40043691B0E1B06436143691943416170473B
:1016B400038AFF2293430382038A194301827047FA
:1016C40000B5002904D1036802229343036000BDDE
:1016D4000268022313430360F9E7C0468268034BA0
:1016E400134083608368194381607047FFFFCFFF15
:1016F40000B54268002903D1044B1340436000BD88
:1017040080235B0313434360F9E7C046FFFFEFFF09
:101714004268034B13404360436819434160704778
:10172400FFFF9FFFC905C90D01857047808CC00567
:10173400C00D7047436809061B021B0A43604368D7
:10174400194341607047C04600B50268002903D1BF
:10175400044B1340036000BD80239B0113430360CB
:10176400F9E7C046FFDFFFFF0268034B1340036045
:101774000368194301607047FFF7FFFF43681022B5
:101784009343436043681943416070474368202290
:1017940093434360436819434160704700B542680E
:1017A400002903D1044B1340436000BD8023DB01B7
:1017B40013434360F9E7C046FFBFFFFF00B50029AC
:1017C40004D1836808229343836000BD82680823A0
:1017D40013438360F9E7C046038AFF221340038260
:1017E400038A0902194301827047C04600B50029E3
:1017F40004D1836820229343836000BD8268202340
:1018040013438360F9E7C04600B5002904D1836817
:1018140010229343836000BD8268102313438360C6
:10182400F9E7C0468268044B490413408360836827
:10183400194381607047C046FFFFF1FF4369090601
:101844001B021B0A43614369194341617047C04647
:1018540083680422934383608368194381607047DB
:1018640000B5002904D1836802229343836000BD3C
:101874008268022313438360F9E7C04600B5826897
:10188400002903D1044B1340836000BD8023DB0196
:1018940013438360F9E7C046FFBFFFFF8268034B31
:1018A400134083608368194381607047FF7FFFFFA3
:1018B4000268044B4905134003600368194301603F
:1018C4007047C046FFFF1FFC0268044B0904134025
:1018D40003600368194301607047C046FFFFE0FFDF
:1018E40000B58368002A02D18B43836000BD19438D
:1018F4008160FBE78268034B13408360836819436C
:1019040081607047FFDFFFFF10B5FF248BB22140D9
:1019140001248C401B0A211C022B0AD0032B0AD061
:101924000368002A02D18B43036010BD1943016090
:10193400FBE70430F4E70830F2E7C04600B5038B58
:10194400002A02D18B43038300BD19430183FBE7C3
:101954008268034B13408360836819438160704736
:10196400FFEFFFFFC0690840431E98417047C0461F
:1019740001627047FF2210B58BB20A4001241B0A92
:101984009440012B0FD0022B10D083682340090C04
:1019940001228A40C069111C08405A1E9341411E0D
:1019A4008841184010BD03682340F0E74368234092
:1019B400EDE7C046090C01238B4003627047C04623
:1019C400002934D00123002210B488422CD30124EE
:1019D4002407A14204D2814202D209011B01F8E783
:1019E400E400A14204D2814202D249005B00F8E73C
:1019F400884201D3401A1A434C08A04202D3001B68
:101A04005C0822438C08A04202D3001B9C0822439A
:101A1400CC08A04202D3001BDC082243002803D0D8
:101A24001B0901D00909E3E7101C10BC704700280A
:101A340001D00020C04307B4024802A1401802901C
:101A440003BDC046190000000029F0D003B5FFF71C
:101A5400B9FF0EBC4243891A1847C0467047C046B6
:101A640070B50C4D0C4E0024761BB61004D008CD76
:101A740001349847A642FAD100F0AAFA074D084E5D
:101A84000024761BB61004D008CD01349847A64232
:101A9400FAD170BD0000000000000000000000004A
:101AA40000000000F0B58BB00124002601A81B2320
:101AB400037046708470FEF7FFFB96239B01802021
:101AC4000493211C0C23800208930596069607961E
:101AD40009969027FEF73AFE8020FF05211CC001DD
:101AE400FEF742FE381C221C0921FEF7D3FB221C00
:101AF400381C0A21FEF7CEFB80239B0002AD029323
:101B040002232B71381C0323291C6B71AE71EC71F9
:101B1400FEF728FB291C8023074DDB00381C0293A9
:101B2400FEF720FB281C04A9FFF7C6FC281C211C77
:101B3400FFF734FD0BB0F0BD0038014070B58AB03A
:101B4400012401A800251C23037045708470FEF74E
:101B5400B3FB059506950795099596238025AD0257
:101B64009B010493281C0C23211C90260893F60542
:101B7400FEF7ECFD281C211CFEF704FE301C221C81
:101B84000221FEF787FB221C301C0321FEF782FB97
:101B9400042302AD029302232B71301C0323291C5E
:101BA4006B71AC71EC71FEF7DDFA291C074D08234B
:101BB400301C0293FEF7D6FA281C04A9FFF77CFC1C
:101BC400281C211CFFF7EAFC0AB070BD0044004049
:101BD40007B5802000030121FEF7B8FDC0239B0058
:101BE4006946009301230B710322002303488B7180
:101BF4004A71CB71FEF7B6FA07BDC046000800482B
:101C040030B5012185B00220FEF7BCFD002510236C
:101C14006A4601246846137055709470FEF74CFBB5
:101C240001A90D814D80094A094D4A60281C64228E
:101C34000A80FEF7B7FE281C221C0221FFF71CFBBA
:101C4400281C211CFEF74AFF05B030BDFFFF000031
:101C54000004004030B50C4C87B0051C0021201C4A
:101C6400FFF79CFC00230193029303930593201C2C
:101C74000C23694604930095FFF71EFC201C0121E8
:101C8400FFF78CFC07B030BD004400400E4B00222F
:101C940010B51A600D4B01221A6008240C48FF216C
:101CA400FFF740FD013C0A48FFF740FD002CF5D149
:101CB400C0B2002805D1074B8022998A52004A40BD
:101CC4009A82014B187810BD2000002018000020D3
:101CD400004400400008004808B5FFF779FFFFF70B
:101CE400E1FEFFF72BFFFFF78BFF0D480D490122A3
:101CF400FFF70AFE0C480B490122FFF705FE0B4BC8
:101D04000122F02108481A60FFF70CFDE12040028F
:101D1400FFF7A0FFFFF7BAFF054B1870FEE7C046B8
:101D24000038014005010500004400401400002073
:101D340010000020354B13B51968012211431960B6
:101D4400586833490F2401405960186831490140EB
:101D54001960186830490140196058682F490840D3
:101D64005860D86AA043D8621C6B2D482040186381
:101D7400586B80249043002258639A600092019229
:101D840018688022520202431A60A022A402D200E0
:101D940018682040019000980130009001980028B4
:101DA40002D100989042F3D1186880229202024036
:101DB40000D001220192019A012A26D1194A112048
:101DC40010605A685A605A685A605A6811405960DB
:101DD4005968882252030A435A6019688022824053
:101DE4000A4380211A6089041868084A0842FBD013
:101DF40051680320814351605168022001435160BE
:101E04000C215A680A40082AFBD113BD0010024075
:101E14000CB8FFF8FFFFF6FEFFFFFBFFFFFFC0FF5C
:101E2400ACFEFFFF00200240704700B5FEE770479C
:101E34007047704708B516481649FFF79BFD002800
:101E440015D01348FFF772FC114812490022FFF71E
:101E54005BFD0F4810490122FFF756FD0F4B0C485C
:101E64001978FFF75FFC0A484121FFF75BFC08483B
:101E74000949FFF77FFD002809D0054806490022DB
:101E8400FFF742FD024803490122FFF73DFD08BD6B
:101E9400003801400501050007010700100000207B
:101EA40038B5224C0025224822492560FFF762FDFF
:101EB400A84229D0204B25601B68AB4212D01F4C8E
:101EC4001B48226853102360FFF730FCC0B2FF2880
:101ED40005D11B4B8022998A92004A409A8203239F
:101EE400236004E01248FFF721FC164B1870124BD4
:101EF40004221A600E480F490022FFF705FD0C4822
:101F040011490122FFF700FD09480F49FFF732FD8F
:101F1400002809D006480C490022FFF7F5FC0448C4
:101F240004490122FFF7F0FC38BDC046140000202C
:101F34000044004005010500180000202000002096
:101F440000080048240000200701070008B5084BDA
:101F54001A680132642A00D000E000221A60054B9E
:101F640005481A68022101321A60FFF7A7F908BD73
:101F7400280000201C000020000400400D48854675
:101F8400002103E00C4B5B58435004310B480C4BCD
:101F940042189A42F6D30B4A02E00023136004323B
:101FA400094B9A42F9D3FFF7C5FEFFF759FDFFF736
:101FB40093FEFEE700200020EC1F00080000002034
:101FC40014000020140000202C000020FEE7000074
:101FD400F8B5C046F8BC08BC9E467047F8B5C04684
:081FE400F8BC08BC9E467047E2
:101FEC0000000000010203040102030406070809B3
:041FFC0002000000DF
:0400000508001F814F
:00000001FF
