:020000040800F2
:1000000000200020511500080514000807140008FE
:1000100000000000000000000000000000000000E0
:100020000000000000000000000000000B140008A9
:1000300000000000000000000D1400080915000871
:10004000A1150008A1150008A1150008A1150008B8
:10005000A1150008A1150008A1150008A1150008A8
:10006000A1150008A1150008A1150008A115000898
:10007000A1150008A1150008A1150008A115000888
:10008000A1150008A115000800000000A115000836
:10009000A1150008A1150008A1150008A115000868
:1000A000A1150008A1150008A115000811140008E9
:1000B000A114000800000000A115000800000000C5
:0400C0005FF808F1EC
:1000C40008B59023DB05984217D0224B98421FD0E5
:1000D400214B984227D0214B98422FD0204B984255
:1000E40000D008BD8020C003012100F059FB80200E
:1000F400C003002100F054FBF3E7802080020121BB
:1001040000F04EFB80208002002100F049FBE8E76C
:100114008020C002012100F043FB8020C0020021A6
:1001240000F03EFBDDE780200003012100F038FBF6
:1001340080200003002100F033FBD2E7802040033D
:10014400012100F02DFB80204003002100F028FB5A
:10015400C7E7C0460004004800080048000C0048F7
:1001640000140048F0B55F46564644464D46F0B488
:1001740083B001910F6803210022002301268846E1
:1001840003E001330232102B29D0341C9C403D1C67
:100194002540A542F5D1019C012124794942A34679
:1001A4005944012922D945469540ED43AC4605689A
:1001B40064462540056005685C4694402C43046011
:1001C400C46845469540AC430199C460CC79C56880
:1001D40094402C430133C4600232102BD5D103B0B8
:1001E4003CBC90469946A246AB46F0BD4146846865
:1001F4009140C9430C408460019C8C4664798168B9
:1002040094400C4384608188A94381800199848847
:100214008D799D4025438580C9E7C046044B022261
:1002240003600023037142718371C3717047C04638
:10023400FFFF0000802382B05B020193019B0B430C
:100244000193019BC361C161019BC361C3690193B4
:10025400C369019302B07047008A0840431E984165
:100264007047C046008A7047808A0840431E984100
:100274007047C046808A7047816170470185704726
:1002840000B5002A01D1018500BD8161FCE7C046AB
:100294008182704707230B40C9080831890030B5B3
:1002A4009B000C580F259D40AC430C500C589A40B1
:1002B400131C23430B5030BD837870B5002B09D138
:1002C40003781F21194001238B40104A191C8023F5
:1002D400D15070BD05780D4BAA080321C03292009D
:1002E4000D40FF24D658E900251C8D40AE43351C33
:1002F4004678B60134408C40291C2143D150027801
:100304001F210A40012191401960E2E700E100E069
:10031400054B00B51A69002902D182431A6100BD58
:1003240010431861FBE7C04600ED00E0054B00B543
:100334001A68042803D004218A431A6000BD1043BC
:100344001860FBE710E000E0114B0122196811432B
:10035400196058680F490140596018680E490140F6
:10036400196018680D490140196058680C4901402A
:100374005960D96A0F208143D962186B0949014039
:100384001963596B9143002259639A607047C046C0
:10039400001002400CB8FFF8FFFFF6FEFFFFFBFF62
:1003A400FFFFC0FFACFEFFFF024B00221A70187063
:1003B4007047C04602100240034BF8211A68C0007F
:1003C4008A431043186070470010024000B5064B82
:1003D400002804D11A6801218A431A6000BD1968F3
:1003E40001220A431A60F9E700100240034BF82186
:1003F4005A6BC0008A431043586370470010024090
:1004040000B5064B002804D15A6B01218A435A6374
:1004140000BD596B01220A435A63F9E700100240F8
:1004240000B5064B002804D1596B04220A435A63D1
:1004340000BD5A6B04218A435A63F9E70010024055
:10044400064B01211A6A8A431A621A6A04218A43F2
:100454001A621A6A104318627047C04600100240BC
:10046400044B18211A6A8A431A621A6A10431862E2
:100474007047C0460010024000B5064B002804D166
:100484005A6A01218A435A6200BD596A01220A4309
:100494005A62F9E700100240054B10B5054A5C6842
:1004A40022405A605A6810430843586010BDC04641
:1004B40000100240FFFFC2FF064B00B51968002878
:1004C40003D1054A0A401A6000BD802252040A433F
:1004D4001A60F9E700100240FFFFFFFE034B0F21F3
:1004E400DA6A8A431043D8627047C046001002405B
:1004F400064B00B51968002803D1054A0A401A6062
:1005040000BD802212030A431A60F9E7001002407A
:10051400FFFFF7FF014B18707047C04607100240F9
:10052400034B03215A688A43104358607047C046FE
:1005340000100240024B0C205B6818407047C04614
:1005440000100240034BF0215A688A43104358605C
:100554007047C04600100240034B044A59680A40E1
:10056400104358607047C04600100240FFF8FFFF78
:10057400094B0A4A59680A405A6059680204120C25
:100584000A435A60196B064A000C0A401A631A6B34
:10059400104318637047C04600100240FFBFFFFFBE
:1005A400FFFEFFFF044B40211A6B8A431A631A6B48
:1005B400104318637047C04600100240044B1021DA
:1005C4001A6B8A431A631A6B104318637047C04648
:1005D40000100240044B03211A6B8A431A631A6BFE
:1005E400104318637047C046001002403B4A38B5B8
:1005F40053680C21041C0B40042B01D0082B52D04F
:1006040037482060354B37495A68051C1206120FCB
:100614008A5CD54065602A1C5D686D056D0F495D77
:10062400CA40A260111C1A6BD50521D42E4BE3607D
:100634002A4B1B6B5D0624D42C4B2361274B1B6B6D
:10064400DA0625D4264B254A6361156B03232B4216
:1006540024D0116B194001293AD0116B1940022999
:1006640038D0126B1340032B01D11D4BA36138BD4D
:100674005B685A0414D44B08E360184B1B6B5D068B
:10068400DAD580231B022361144B1B6BDA06D9D500
:10069400124A6061156B03232B42DAD1A161E6E7AC
:1006A4008B08E360C4E755685368AD022D0F02352B
:1006B400D90303D40E4868432060A3E7D36A0F210B
:1006C40019400131064800F097FB6843206099E720
:1006D400A061CCE780231B02A361C8E7001002409D
:1006E40000127A0000000020809FD50012800000D4
:1006F40000093D00024B1A6A104318627047C04655
:1007040000100240064B00B5196A002803D1054ABF
:100714000A401A6200BD802212020A431A62F9E7F3
:1007240000100240FF7FFFFF064B00B5196A002846
:1007340003D1054A0A401A6200BD802252020A43CC
:100744001A62F9E700100240FFFFFEFF054B00B5F7
:100754005A69002902D182435A6100BD104358618D
:10076400FBE7C04600100240054B00B59A6900291A
:1007740002D182439A6100BD10439861FBE7C046F1
:1007840000100240054B00B5DA69002902D182430A
:10079400DA6100BD1043D861FBE7C0460010024097
:1007A400054B00B59A6A002902D182439A6200BDC2
:1007B40010439862FBE7C04600100240054B00B5A9
:1007C400DA68002902D18243DA6000BD1043D860A0
:1007D400FBE7C04600100240054B00B51A6900292A
:1007E40002D182431A6100BD10431861FBE7C04681
:1007F4000010024000B5054B1A78002902D182434B
:100804001A7000BD10431870FBE7C046091002407F
:1008140000B5430908D10B4B1A681F231840C24086
:10082400101C0123184000BD012B04D0022B05D05D
:10083400044B5A6BF1E7034B1A6AEEE7014B5A6A11
:10084400EBE7C0460010024010B5002382B0A0249C
:100854000193E40001E0002808D11120FFF7D8FF3C
:10086400019B01330193019BA342F4D11120FFF7B3
:10087400CFFF431E984102B010BDC046034B8022F7
:10088400596A52040A435A627047C0460010024033
:10089400024B9B681840431E984170470010024069
:1008A400014B18707047C0460A10024008B50E4B41
:1008B40098420ED00D4B984200D008BD8020800293
:1008C4000121FFF789FF802080020021FFF784FFC8
:1008D400F3E78020C0010121FFF770FF8020C001F1
:1008E4000021FFF76BFFE8E70038014000440040B7
:1008F400036801229343F0B5036042681F4B0D1C4B
:10090400896813400B43436002681D4B69681A40B1
:10091400EB6889B00B432969041C0B431343036040
:100924008268184B13406A691343836001A8FFF778
:100934005DFE154B9C421ED0039F2368190400D50D
:100944007F002E68381C311C00F056FA311C051C3F
:10095400381C00F095FA76080023B1425B41ED188B
:1009640023681A0404D5094A2B075B0F15401D435D
:10097400A58109B0F0BD079FDFE7C046FFCFFFFFA9
:10098400F3E9FFFFFFFCFFFF00380140F0FF000028
:1009940096239B0103600C22002343608360C360A1
:1009A400026143617047C0464268064B10B51A4065
:1009B4000C684B6823438C68C96823430B43134377
:1009C400436010BDFFF0FFFF0023036043608360BA
:1009D400C360704700B5002904D103680122934322
:1009E400036000BD0268012313430360F9E7C046B6
:1009F40000B50368002A02D18B43036000BD19438C
:100A04000160FBE700B50268002903D1044B1340E1
:100A1400036000BD80231B0213430360F9E7C04653
:100A2400FF7FFFFF00B58268002903D1044B134008
:100A3400836000BD80231B0113438360F9E7C04634
:100A4400FFF7FFFF00B54268002903D1044B1340B0
:100A5400436000BD80231B0313434360F9E7C04692
:100A6400FFFFF7FF00B54268002903D1044B134090
:100A7400436000BD8023DB0213434360F9E7C046B3
:100A8400FFFFFBFF00B54368002A02D18B4343609C
:100A940000BD19434160FBE700B54268002903D15A
:100AA400044B1340436000BD80231B021343436087
:100AB400F9E7C046FF7FFFFF00B54268002903D174
:100AC400044B1340436000BD80231B041343436065
:100AD400F9E7C046FFFF7FFF43691B0E1B06436116
:100AE4004369194341617047038AFF229343038298
:100AF400038A19430182704700B5002904D10368B1
:100B040002229343036000BD02680223134303607F
:100B1400F9E7C0468268034B134083608368194336
:100B240081607047FFFFCFFF00B54268002903D101
:100B3400044B1340436000BD80235B0313434360B5
:100B4400F9E7C046FFFFEFFF4268034B13404360E1
:100B54004368194341607047FFFF9FFFC905C90DF2
:100B640001857047808CC005C00D70474368090635
:100B74001B021B0A43604368194341607047C04627
:100B840000B50268002903D1044B1340036000BD83
:100B940080239B0113430360F9E7C046FFDFFFFF97
:100BA4000268034B134003600368194301607047F4
:100BB400FFF7FFFF436810229343436043681943E0
:100BC400416070474368202293434360436819435C
:100BD4004160704700B54268002903D1044B1340BB
:100BE400436000BD8023DB0113434360F9E7C04643
:100BF400FFBFFFFF00B5002904D183680822934397
:100C0400836000BD8268082313438360F9E7C0460C
:100C1400038AFF2213400382038A090219430182D3
:100C24007047C04600B5002904D18368202293434D
:100C3400836000BD8268202313438360F9E7C046C4
:100C440000B5002904D1836810229343836000BD5A
:100C54008268102313438360F9E7C0468268044B1B
:100C64004904134083608368194381607047C04618
:100C7400FFFFF1FF436909061B021B0A4361436935
:100C8400194341617047C0468368042293438360DB
:100C9400836819438160704700B5002904D18368D3
:100CA40002229343836000BD82680223134383605E
:100CB400F9E7C04600B58268002903D1044B13400C
:100CC400836000BD8023DB0113438360F9E7C046E2
:100CD400FFBFFFFF8268034B13408360836819439F
:100CE40081607047FF7FFFFF0268044B4905134092
:100CF40003600368194301607047C046FFFF1FFC8F
:100D04000268044B0904134003600368194301603B
:100D14007047C046FFFFE0FF00B58368002A02D198
:100D24008B43836000BD19438160FBE78268034BFA
:100D3400134083608368194381607047FFDFFFFFBE
:100D440010B5FF248BB2214001248C401B0A211CC6
:100D5400022B0AD0032B0AD00368002A02D18B434A
:100D6400036010BD19430160FBE70430F4E7083069
:100D7400F2E7C04600B5038B002A02D18B430383FC
:100D840000BD19430183FBE78268034B1340836072
:100D94008368194381607047FFEFFFFFC069084013
:100DA400431E98417047C04601627047FF2210B548
:100DB4008BB20A4001241B0A9440012B0FD0022B52
:100DC40010D083682340090C01228A40C069111C99
:100DD40008405A1E9341411E8841184010BD0368C3
:100DE4002340F0E743682340EDE7C046090C0123A4
:100DF4008B4003627047C046002934D0012300228F
:100E040010B488422CD301242407A14204D2814285
:100E140002D209011B01F8E7E400A14204D2814295
:100E240002D249005B00F8E7884201D3401A1A4312
:100E34004C08A04202D3001B5C0822438C08A04249
:100E440002D3001B9C082243CC08A04202D3001BFF
:100E5400DC082243002803D01B0901D00909E3E779
:100E6400101C10BC7047002801D00020C04307B4F8
:100E7400024802A14018029003BDC04619000000B8
:100E84000029F0D003B5FFF7B9FF0EBC4243891A1D
:100E94001847C0467047C04670B50C4D0C4E002430
:100EA400761BB61004D008CD01349847A642FAD177
:100EB40000F076FB074D084E0024761BB61004D0D4
:100EC40008CD01349847A642FAD170BD0000000055
:100ED400000000000000000000000000F0B58BB02E
:100EE400012401A81B23037044708470FFF7E4F904
:100EF40096239B01802000260493211C0C2380024E
:100F0400089305960696079609969027FFF71EFC08
:100F14008020FF05211CC001FFF726FC381C221C81
:100F24000921FFF7B7F9221C381C0A21FFF7B2F98F
:100F340080239B0002AD029302232B71381C0323F0
:100F4400291C6B71AE71EC71FFF70CF9291C80231D
:100F5400074DDB00381C0293FFF704F9281C04A991
:100F6400FFF7C6FC281C211CFFF734FD0BB0F0BDB5
:100F74000038014070B58AB0012401A800251C2363
:100F8400037045708470FFF797F9059506950795EA
:100F9400099596238025AD029B010493281C0C23FC
:100FA400211C90260893F605FFF7D0FB281C211C72
:100FB400FFF7E8FB301C221C0221FFF76BF9221C0F
:100FC400301C0321FFF766F9042302AD02930223C8
:100FD4002B71301C0323291C6B71AC71EC71FFF76E
:100FE400C1F8291C074D0823301C0293FFF7BAF8F7
:100FF400281C04A9FFF77CFC281C211CFFF7EAFC31
:101004000AB070BD0044004073B580200003012184
:10101400FFF79CFBC0239B000124002503260093BB
:1010240069466B460B489D715E71DD711C71FFF75B
:1010340099F88020211CC002FFF788FB064B074863
:10104400009369466B469D715E711C71DC71FFF7FC
:1010540089F873BD00080048070C0000000400482C
:1010640030B50C4C87B0051C0021201CFFF7B2FCE6
:1010740000230193029303930593201C0C236946D8
:1010840004930095FFF734FC201C0121FFF7A2FC18
:1010940007B030BD00440040962010B58001FFF732
:1010A400DFFF064C01230648F0212360FFF756FDBD
:1010B4002368002BFCD1034B1B7810BD14000020C7
:1010C400004400402800002070B5051C0824094B8A
:1010D400012119601E1C2940074800D0FF21FFF799
:1010E4003DFD3368002BFCD1013C6D08002CEED192
:1010F40070BDC046140000200044004070B50825AF
:1011040000240B4E01230B48FF2164083360FFF7D2
:1011140025FD3368002BFCD1074B1B78FF2B01D135
:1011240080231C43013D002DEBD1201C70BDC04623
:1011340014000020004400402800002010B5084C92
:1011440001230848FF212360FFF708FD2368002BD3
:10115400FCD1054B1878FF384342584110BDC046B6
:1011640014000020004400402800002008B5FFF7C8
:1011740093FFE1204002FFF773FFCC20FFF7A4FFA9
:101184004420FFF7A1FFFFF7D9FF0028FBD008BDDB
:1011940010B5FFF781FFE1204002FFF761FFCC208B
:1011A400FFF792FFBE20FFF78FFF0024FFF7A6FF93
:1011B4000A4A10550134092CF8D1094B0021197041
:1011C40011781878090901431970507807221978A1
:1011D400024012010A431A7010BDC04630000020BC
:1011E4001C00002010B5FFF70FFFFFF777FEFFF795
:1011F400C1FE394839490122FFF7A2FD01223848CE
:101204003649FFF79DFDFFF7B1FFFFF7C1FF354BEF
:10121400354A1B689B0893420FD85A1E334BC02192
:101224005A60334A0906106A0002000A0143116237
:1012340000229A6007221A6000E0FEE72D4C236822
:10124400002B05D0FFF792FFFFF7A2FF00232360D6
:1012540029492A4A08781478294B844210D29A8A58
:1012640004210A439A82998A8022D2000A439A82EC
:101274009A8A01218A439A829A8A02218A4325E022
:10128400507809781F4A884212D9998A012001436B
:101294009982988A8021090101439982998A0420BC
:1012A40081439982998A022081439982998A10E024
:1012B400998A022001439982998A04208143998260
:1012C400998A012081439982998A0A409A82998A4B
:1012D4000D4A0A409A82B1E7003801400501050031
:1012E4000044004010000020FFFFFF0010E000E079
:1012F40000ED00E0180000201C0000202900002060
:1013040000040048FFFBFFFFFFF7FFFF354B13B559
:101314001968012211431960586833490F240140A8
:101324005960186831490140196018683049014012
:10133400196058682F4908405860D86AA043D86299
:101344001C6B2D4820401863586B80249043002266
:1013540058639A60009201921868802252020243F4
:101364001A60A022A402D2001868204001900098BC
:10137400013000900198002802D100989042F3D1E6
:10138400186880229202024000D001220192019A40
:10139400012A26D1194A112010605A685A605A68E5
:1013A4005A605A68114059605968882252030A43A6
:1013B4005A601968802282400A4380211A60890495
:1013C4001868084A0842FBD05168032081435160E1
:1013D40051680220014351600C215A680A40082ACE
:1013E400FBD113BD001002400CB8FFF8FFFFF6FE5E
:1013F400FFFFFBFFFFFFC0FFACFEFFFF002002402A
:10140400704700B5FEE770477047000008B51D48F7
:101414001D49FFF7CBFC002822D01A48FFF7A2FB96
:101424001A4BC0B21A68002A04DD1949891A887057
:10143400013A0AE0652805D1164B12481978FFF7DE
:101444008DFB03E0662801D102221A600D480E4983
:101454000022FFF775FC0B480F490122FFF770FCCF
:1014640008480D49FFF7A2FC002809D005480A499D
:101474000022FFF765FC034803490122FFF760FCE3
:1014840008BDC046003801400501050020000020C9
:10149400290000201C0000200701070008B514489B
:1014A4001449FFF783FC002810D01148FFF75AFBBA
:1014B400114B00221870114B0D480E491A60FFF7AA
:1014C4003FFC0B480E490122FFF73AFC08480C493F
:1014D400FFF76CFC002809D0054809490022FFF7F2
:1014E4002FFC034803490122FFF72AFC08BDC0462C
:1014F40000440040050105002800002014000020DD
:10150400070107000D4A00B5136801331360022B6D
:1015140012D10B4B8022998A52004A409A82094B7D
:101524001A68002A01D101221A60074B1A68013295
:101534001A60024B00221A6000BDC0462C00002035
:101544000008004818000020240000200D488546AB
:10155400002103E00C4B5B58435004310B480C4B07
:1015640042189A42F6D30B4A02E000231360043275
:10157400094B9A42F9D3FFF7C9FEFFF78DFCFFF739
:1015840031FEFEE700200020BC150008000000200A
:1015940014000020140000203C000020FEE700009E
:1015A400F8B5C046F8BC08BC9E467047F8B5C046BE
:0815B400F8BC08BC9E4670471C
:1015BC0000000000010203040102030406070809ED
:0415CC00006CDC02D1
:040000050800155189
:00000001FF
